:100000002AC037C036C000C134C033C032C031C08E
:1000100030C02FC076C17BC180C187C18CC193C164
:100020009BC1FF0080C06030180C06030100010373
:10003000060C183060C0808142241824428181421D
:100040002418183C7EFFFFF000F000F000F0000FD5
:10005000000F000F000F11241FBECFE9CDBF20E01D
:10006000A0E6B0E001C01D92AE36B207E1F7F1D0D4
:10007000A0C1C6CF87B3807F87BB88B3807F88BB92
:1000800008950F931F93CF93DF938C01C0E0D0E0CE
:10009000C017D107BCF4EEDF98B3809164008F7075
:1000A000892B88BB27B3909164009F70922B97BBDC
:1000B000E1DF27B39091640092959F70922B97BBDC
:1000C0002196E6CFDF91CF911F910F9108954F9226
:1000D0005F926F927F928F929F92AF92BF92CF92D8
:1000E000DF92EF92FF920F931F93CF93DF93C09015
:1000F0006600D0906700E0906800F0906900809002
:10010000600090906100A0906200B09063002601B2
:100110003701481859086A087B08092E000CAA0BF9
:10012000BB0B481659066A067B0648F15A01162F82
:10013000022FE9018C2F801B811780F4C092600090
:10014000D0926100E0926200F0926300FE0184911F
:1001500080936400C50195DF2196ECCFDF91CF91AC
:100160001F910F91FF90EF90DF90CF90BF90AF90D5
:100170009F908F907F906F905F904F907BCFDF919B
:10018000CF911F910F91FF90EF90DF90CF90BF9094
:10019000AF909F908F907F906F905F904F90089559
:1001A000CF93DF93C1E0D0E00090650002C0CC0F98
:1001B000DD1F0A94E2F7C03138F45CDF88B3CF70FA
:1001C0008C2B88BB87B304C055DF87B3C295CF7033
:1001D000C82BC7BB89EC90E0019739F0EFE5F9E057
:1001E0003197F1F700C00000F7CF44DF85E690E0DB
:1001F000019739F0EFE5F9E03197F1F700C0000021
:10020000F7CFDF91CF9108951F920F920FB60F9203
:1002100011248F939F93AF93BF9380916A00909125
:100220006B00A0916C00B0916D000196A11DB11DF5
:1002300080936A0090936B00A0936C00B0936D0064
:10024000BF91AF919F918F910F900FBE0F901F9014
:10025000189583B7816083BF8FB583608FBD89B7E1
:10026000826089BF12BE789417B886B1876886B954
:100270003798C49ABC9885E2C82ED12CE12CF12C79
:10028000F89460916A0070916B0080916C0090917D
:100290006D007894A70196016AD020936600309390
:1002A00067004093680050936900B4991FC0109292
:1002B0006400809165008F5F873018F4809365003B
:1002C00002C0109265006CDF6BDF6ADF8091660010
:1002D00090916700A0916800B091690080936000E0
:1002E00090936100A0936200B0936300E091650079
:1002F0008E2F90E087309105C0F5FC01E65FFF4F3F
:10030000099427E430E040E45FE16FE021C02EE390
:1003100030E040E85EE369E005C027E330E040E814
:100320005EE367E08CED95E015C024E230E040E448
:100330005FE163E10DC024E230E040E85EE363E1A9
:1003400084EC99E007C022E230E040E85EE362E03E
:1003500080E090E0BCDE94CF80E89EE392DE809166
:1003600064008F5F809364008BCF84DE89CFA1E22D
:100370001A2EAA1BBB1BFD010DC0AA1FBB1FEE1F1F
:10038000FF1FA217B307E407F50720F0A21BB30B6A
:10039000E40BF50B661F771F881F991F1A9469F7E6
:1003A00060957095809590959B01AC01BD01CF0142
:0603B0000895F894FFCF50
:00000001FF
